{
  "contractName": "Faucet",
  "abi": [
    {
      "inputs": [
        {
          "internalType": "address",
          "name": "",
          "type": "address"
        }
      ],
      "name": "funders",
      "outputs": [
        {
          "internalType": "bool",
          "name": "",
          "type": "bool"
        }
      ],
      "stateMutability": "view",
      "type": "function"
    },
    {
      "inputs": [
        {
          "internalType": "uint256",
          "name": "",
          "type": "uint256"
        }
      ],
      "name": "lutFunders",
      "outputs": [
        {
          "internalType": "address",
          "name": "",
          "type": "address"
        }
      ],
      "stateMutability": "view",
      "type": "function"
    },
    {
      "inputs": [],
      "name": "numOfFunders",
      "outputs": [
        {
          "internalType": "uint256",
          "name": "",
          "type": "uint256"
        }
      ],
      "stateMutability": "view",
      "type": "function"
    },
    {
      "inputs": [],
      "name": "owner",
      "outputs": [
        {
          "internalType": "address",
          "name": "",
          "type": "address"
        }
      ],
      "stateMutability": "view",
      "type": "function"
    },
    {
      "inputs": [],
      "name": "testNum",
      "outputs": [
        {
          "internalType": "uint256",
          "name": "",
          "type": "uint256"
        }
      ],
      "stateMutability": "view",
      "type": "function"
    },
    {
      "stateMutability": "payable",
      "type": "receive"
    },
    {
      "inputs": [],
      "name": "emitLog",
      "outputs": [
        {
          "internalType": "bytes32",
          "name": "",
          "type": "bytes32"
        }
      ],
      "stateMutability": "pure",
      "type": "function"
    },
    {
      "inputs": [],
      "name": "addFunds",
      "outputs": [],
      "stateMutability": "payable",
      "type": "function"
    },
    {
      "inputs": [],
      "name": "test1",
      "outputs": [],
      "stateMutability": "nonpayable",
      "type": "function"
    },
    {
      "inputs": [],
      "name": "test2",
      "outputs": [],
      "stateMutability": "nonpayable",
      "type": "function"
    },
    {
      "inputs": [
        {
          "internalType": "uint256",
          "name": "withdrawAmount",
          "type": "uint256"
        }
      ],
      "name": "withdraw",
      "outputs": [],
      "stateMutability": "nonpayable",
      "type": "function"
    },
    {
      "inputs": [],
      "name": "getAllFunders",
      "outputs": [
        {
          "internalType": "address[]",
          "name": "",
          "type": "address[]"
        }
      ],
      "stateMutability": "view",
      "type": "function"
    },
    {
      "inputs": [
        {
          "internalType": "uint8",
          "name": "index",
          "type": "uint8"
        }
      ],
      "name": "getFunderAtIndex",
      "outputs": [
        {
          "internalType": "address",
          "name": "",
          "type": "address"
        }
      ],
      "stateMutability": "view",
      "type": "function"
    }
  ],
  "bytecode": "0x608060405234801561001057600080fd5b50336000806101000a81548173ffffffffffffffffffffffffffffffffffffffff021916908373ffffffffffffffffffffffffffffffffffffffff1602179055506103e8600181905550610c77806100696000396000f3fe6080604052600436106100ab5760003560e01c80636fbbb55d116100645780636fbbb55d146101c55780638da5cb5b146101f0578063a26759cb1461021b578063ae28f1ed14610225578063af7f2c9b14610250578063f42c13bf1461027b576100b2565b8063031b3677146100b75780630a93cf33146100f45780631f8947ea146101315780632e1a7d4d1461016e57806366e41cb7146101975780636b59084d146101ae576100b2565b366100b257005b600080fd5b3480156100c357600080fd5b506100de60048036038101906100d991906107ed565b6102a6565b6040516100eb91906109ac565b60405180910390f35b34801561010057600080fd5b5061011b6004803603810190610116919061083f565b6102c6565b604051610128919061096f565b60405180910390f35b34801561013d57600080fd5b5061015860048036038101906101539190610816565b610306565b604051610165919061096f565b60405180910390f35b34801561017a57600080fd5b5061019560048036038101906101909190610816565b610339565b005b3480156101a357600080fd5b506101ac6103d0565b005b3480156101ba57600080fd5b506101c3610460565b005b3480156101d157600080fd5b506101da6104f0565b6040516101e7919061098a565b60405180910390f35b3480156101fc57600080fd5b50610205610636565b604051610212919061096f565b60405180910390f35b61022361065a565b005b34801561023157600080fd5b5061023a61077a565b6040516102479190610a22565b60405180910390f35b34801561025c57600080fd5b50610265610780565b6040516102729190610a22565b60405180910390f35b34801561028757600080fd5b50610290610786565b60405161029d91906109c7565b60405180910390f35b60046020528060005260406000206000915054906101000a900460ff1681565b6000600360008360ff16815260200190815260200160002060009054906101000a900473ffffffffffffffffffffffffffffffffffffffff169050919050565b60036020528060005260406000206000915054906101000a900473ffffffffffffffffffffffffffffffffffffffff1681565b8067016345785d8a0000811115610385576040517f08c379a000000000000000000000000000000000000000000000000000000000815260040161037c90610a02565b60405180910390fd5b3373ffffffffffffffffffffffffffffffffffffffff166108fc839081150290604051600060405180830381858888f193505050501580156103cb573d6000803e3d6000fd5b505050565b60008054906101000a900473ffffffffffffffffffffffffffffffffffffffff1673ffffffffffffffffffffffffffffffffffffffff163373ffffffffffffffffffffffffffffffffffffffff161461045e576040517f08c379a0000000000000000000000000000000000000000000000000000000008152600401610455906109e2565b60405180910390fd5b565b60008054906101000a900473ffffffffffffffffffffffffffffffffffffffff1673ffffffffffffffffffffffffffffffffffffffff163373ffffffffffffffffffffffffffffffffffffffff16146104ee576040517f08c379a00000000000000000000000000000000000000000000000000000000081526004016104e5906109e2565b60405180910390fd5b565b6060600060025467ffffffffffffffff811115610536577f4e487b7100000000000000000000000000000000000000000000000000000000600052604160045260246000fd5b6040519080825280602002602001820160405280156105645781602001602082028036833780820191505090505b50905060005b60025481101561062e576003600082815260200190815260200160002060009054906101000a900473ffffffffffffffffffffffffffffffffffffffff168282815181106105e1577f4e487b7100000000000000000000000000000000000000000000000000000000600052603260045260246000fd5b602002602001019073ffffffffffffffffffffffffffffffffffffffff16908173ffffffffffffffffffffffffffffffffffffffff1681525050808061062690610ae6565b91505061056a565b508091505090565b60008054906101000a900473ffffffffffffffffffffffffffffffffffffffff1681565b600033905060006002600081548092919061067490610ae6565b919050559050600460008373ffffffffffffffffffffffffffffffffffffffff1673ffffffffffffffffffffffffffffffffffffffff16815260200190815260200160002060009054906101000a900460ff16610776576001600460008473ffffffffffffffffffffffffffffffffffffffff1673ffffffffffffffffffffffffffffffffffffffff16815260200190815260200160002060006101000a81548160ff021916908315150217905550816003600083815260200190815260200160002060006101000a81548173ffffffffffffffffffffffffffffffffffffffff021916908373ffffffffffffffffffffffffffffffffffffffff1602179055505b5050565b60015481565b60025481565b60007f48656c6c6f20576f726c64000000000000000000000000000000000000000000905090565b6000813590506107bd81610bfc565b92915050565b6000813590506107d281610c13565b92915050565b6000813590506107e781610c2a565b92915050565b6000602082840312156107ff57600080fd5b600061080d848285016107ae565b91505092915050565b60006020828403121561082857600080fd5b6000610836848285016107c3565b91505092915050565b60006020828403121561085157600080fd5b600061085f848285016107d8565b91505092915050565b60006108748383610880565b60208301905092915050565b61088981610a87565b82525050565b61089881610a87565b82525050565b60006108a982610a4d565b6108b38185610a65565b93506108be83610a3d565b8060005b838110156108ef5781516108d68882610868565b97506108e183610a58565b9250506001810190506108c2565b5085935050505092915050565b61090581610a99565b82525050565b61091481610aa5565b82525050565b6000610927602183610a76565b915061093282610b5e565b604082019050919050565b600061094a602383610a76565b915061095582610bad565b604082019050919050565b61096981610acf565b82525050565b6000602082019050610984600083018461088f565b92915050565b600060208201905081810360008301526109a4818461089e565b905092915050565b60006020820190506109c160008301846108fc565b92915050565b60006020820190506109dc600083018461090b565b92915050565b600060208201905081810360008301526109fb8161091a565b9050919050565b60006020820190508181036000830152610a1b8161093d565b9050919050565b6000602082019050610a376000830184610960565b92915050565b6000819050602082019050919050565b600081519050919050565b6000602082019050919050565b600082825260208201905092915050565b600082825260208201905092915050565b6000610a9282610aaf565b9050919050565b60008115159050919050565b6000819050919050565b600073ffffffffffffffffffffffffffffffffffffffff82169050919050565b6000819050919050565b600060ff82169050919050565b6000610af182610acf565b91507fffffffffffffffffffffffffffffffffffffffffffffffffffffffffffffffff821415610b2457610b23610b2f565b5b600182019050919050565b7f4e487b7100000000000000000000000000000000000000000000000000000000600052601160045260246000fd5b7f4f6e6c79206f776e65722063616e2063616c6c20746869732066756e6374696f60008201527f6e00000000000000000000000000000000000000000000000000000000000000602082015250565b7f43616e6e6f74207769746864726177206d6f7265207468616e20302e3120657460008201527f6865720000000000000000000000000000000000000000000000000000000000602082015250565b610c0581610a87565b8114610c1057600080fd5b50565b610c1c81610acf565b8114610c2757600080fd5b50565b610c3381610ad9565b8114610c3e57600080fd5b5056fea2646970667358221220de888f795f8b766379d9c811b633476715655f83f7cb2ed87b6fdf06e95cda4d64736f6c63430008040033",
  "immutableReferences": {},
  "source": "// SPDX-License-Identifier: MIT\r\npragma solidity >=0.4.22 <0.9.0;\r\n\r\nimport \"./Owned.sol\";\r\nimport \"./Logger.sol\";\r\nimport \"./IFaucet.sol\";\r\n\r\ncontract Faucet is Owned, Logger, IFaucet {\r\n \r\n uint public numOfFunders;\r\n\r\n mapping(uint => address) public lutFunders;\r\n mapping(address => bool) public funders;\r\n\r\n \r\n\r\n modifier limitWithdraw(uint withdrawAmount){\r\n   require(withdrawAmount <= 100000000000000000, \"Cannot withdraw more than 0.1 ether\");\r\n   _;\r\n }\r\n\r\n\r\nreceive() external payable {}\r\n \r\nfunction emitLog() public override pure returns(bytes32){\r\n  return \"Hello World\";\r\n}\r\n\r\nfunction addFunds() override external payable {\r\n\r\n   address funder = msg.sender;\r\n    uint index = numOfFunders++;\r\n    if(!funders[funder]){\r\n      funders[funder] = true;\r\n      lutFunders[index] = funder;\r\n    }\r\n} \r\n\r\nfunction test1() external onlyOwner {\r\n  //some managing stuff that only admin should have access to\r\n}\r\n\r\nfunction test2() external onlyOwner {\r\n  // some managing stuff that only admin should have access to \r\n}\r\n\r\nfunction withdraw(uint withdrawAmount) override external limitWithdraw(withdrawAmount) {\r\n    \r\n   payable(msg.sender).transfer(withdrawAmount);\r\n}\r\n\r\nfunction getAllFunders() external view returns (address[] memory){\r\n   address[] memory _funders = new address[](numOfFunders);\r\n\r\n   for(uint i = 0; i < numOfFunders; i++){\r\n     _funders[i] = lutFunders[i];\r\n   }\r\n\r\n   return _funders;\r\n\r\n}\r\n\r\n function getFunderAtIndex(uint8 index) external view returns(address) {\r\n  return lutFunders[index];\r\n }\r\n}\r\n\r\n",
  "sourcePath": "C:\\Users\\Sumair\\Desktop\\blockchain\\faucet\\contracts\\FaucetContract.sol",
  "compiler": {
    "name": "solc",
    "version": "0.8.4+commit.c7e474f2.Emscripten.clang"
  },
  "schemaVersion": "3.4.3",
  "updatedAt": "2022-01-23T11:36:05.753Z",
  "devdoc": {
    "kind": "dev",
    "methods": {},
    "version": 1
  },
  "userdoc": {
    "kind": "user",
    "methods": {},
    "version": 1
  }
}